{
  "_format": "hh-sol-artifact-1",
  "contractName": "EnhancedDataRequestContract",
  "sourceName": "contracts/EnhancedDataRequestContract.sol",
  "abi": [
    {
      "anonymous": false,
      "inputs": [
        {
          "indexed": false,
          "internalType": "uint256",
          "name": "requestId",
          "type": "uint256"
        },
        {
          "indexed": false,
          "internalType": "enum EnhancedDataRequestContract.RequestStatus",
          "name": "newStatus",
          "type": "uint8"
        }
      ],
      "name": "DataRequestUpdated",
      "type": "event"
    },
    {
      "anonymous": false,
      "inputs": [
        {
          "indexed": false,
          "internalType": "uint256",
          "name": "requestId",
          "type": "uint256"
        },
        {
          "indexed": true,
          "internalType": "address",
          "name": "requester",
          "type": "address"
        },
        {
          "indexed": true,
          "internalType": "address",
          "name": "user",
          "type": "address"
        },
        {
          "indexed": false,
          "internalType": "string[]",
          "name": "fields",
          "type": "string[]"
        }
      ],
      "name": "NewDataRequest",
      "type": "event"
    },
    {
      "inputs": [
        {
          "internalType": "uint256",
          "name": "_requestId",
          "type": "uint256"
        }
      ],
      "name": "getRequestStatus",
      "outputs": [
        {
          "internalType": "enum EnhancedDataRequestContract.RequestStatus",
          "name": "",
          "type": "uint8"
        }
      ],
      "stateMutability": "view",
      "type": "function"
    },
    {
      "inputs": [
        {
          "internalType": "address",
          "name": "_requester",
          "type": "address"
        }
      ],
      "name": "getRequesterRequests",
      "outputs": [
        {
          "internalType": "uint256[]",
          "name": "",
          "type": "uint256[]"
        }
      ],
      "stateMutability": "view",
      "type": "function"
    },
    {
      "inputs": [
        {
          "internalType": "address",
          "name": "_user",
          "type": "address"
        }
      ],
      "name": "getUserRequests",
      "outputs": [
        {
          "internalType": "uint256[]",
          "name": "",
          "type": "uint256[]"
        }
      ],
      "stateMutability": "view",
      "type": "function"
    },
    {
      "inputs": [
        {
          "internalType": "address",
          "name": "_user",
          "type": "address"
        },
        {
          "internalType": "string[]",
          "name": "_fields",
          "type": "string[]"
        }
      ],
      "name": "requestData",
      "outputs": [],
      "stateMutability": "nonpayable",
      "type": "function"
    },
    {
      "inputs": [
        {
          "internalType": "address",
          "name": "",
          "type": "address"
        },
        {
          "internalType": "uint256",
          "name": "",
          "type": "uint256"
        }
      ],
      "name": "requesterToRequestIds",
      "outputs": [
        {
          "internalType": "uint256",
          "name": "",
          "type": "uint256"
        }
      ],
      "stateMutability": "view",
      "type": "function"
    },
    {
      "inputs": [
        {
          "internalType": "uint256",
          "name": "",
          "type": "uint256"
        }
      ],
      "name": "requests",
      "outputs": [
        {
          "internalType": "uint256",
          "name": "id",
          "type": "uint256"
        },
        {
          "internalType": "address",
          "name": "requester",
          "type": "address"
        },
        {
          "internalType": "address",
          "name": "user",
          "type": "address"
        },
        {
          "internalType": "enum EnhancedDataRequestContract.RequestStatus",
          "name": "status",
          "type": "uint8"
        }
      ],
      "stateMutability": "view",
      "type": "function"
    },
    {
      "inputs": [
        {
          "internalType": "uint256",
          "name": "_requestId",
          "type": "uint256"
        },
        {
          "internalType": "enum EnhancedDataRequestContract.RequestStatus",
          "name": "_status",
          "type": "uint8"
        }
      ],
      "name": "updateRequestStatus",
      "outputs": [],
      "stateMutability": "nonpayable",
      "type": "function"
    },
    {
      "inputs": [
        {
          "internalType": "address",
          "name": "",
          "type": "address"
        },
        {
          "internalType": "uint256",
          "name": "",
          "type": "uint256"
        }
      ],
      "name": "userToRequestIds",
      "outputs": [
        {
          "internalType": "uint256",
          "name": "",
          "type": "uint256"
        }
      ],
      "stateMutability": "view",
      "type": "function"
    }
  ],
  "bytecode": "0x608060405234801561001057600080fd5b50610be5806100206000396000f3fe608060405234801561001057600080fd5b50600436106100885760003560e01c8063b337cf741161005b578063b337cf7414610130578063d8a4676f14610150578063e64e8a1114610183578063fc2304a51461019657600080fd5b80630931792c1461008d5780635923e87d146100b3578063633847e2146100c857806381d12c58146100db575b600080fd5b6100a061009b3660046106c2565b6101a9565b6040519081526020015b60405180910390f35b6100c66100c13660046106ec565b6101da565b005b6100c66100d6366004610767565b61033d565b6101206100e9366004610892565b600060208190529081526040902080546001820154600283015460049093015491926001600160a01b039182169291169060ff1684565b6040516100aa94939291906108e3565b61014361013e366004610917565b6104ef565b6040516100aa9190610939565b61017661015e366004610892565b60009081526020819052604090206004015460ff1690565b6040516100aa919061097d565b610143610191366004610917565b61055b565b6100a06101a43660046106c2565b6105c5565b600160205281600052604060002081815481106101c557600080fd5b90600052602060002001600091509150505481565b60008281526020819052604090206002015482906001600160a01b031633146102595760405162461bcd60e51b815260206004820152602660248201527f204f6e6c792074686520757365722063616e206d6f6469667920746869732072604482015265195c5d595cdd60d21b60648201526084015b60405180910390fd5b60008381526020819052604081206004015460ff16600281111561027f5761027f6108ab565b146102cc5760405162461bcd60e51b815260206004820152601d60248201527f205265717565737420697320616c72656164792070726f6365737365640000006044820152606401610250565b6000838152602081905260409020600401805483919060ff191660018360028111156102fa576102fa6108ab565b02179055507f72fc0f8a6b3a44644a67756df2bd4bcee1c3bf040a18a041b0bdbc7841ac72408383604051610330929190610991565b60405180910390a1505050565b600081511161038e5760405162461bcd60e51b815260206004820152601c60248201527f204174206c65617374206f6e65206669656c64207265717569726564000000006044820152606401610250565b6003805490600061039e836109a5565b90915550506040805160a081018252600380548083523360208085019182526001600160a01b0388811686880190815260608701898152600060808901819052958652858452979094208651815592516001840180546001600160a01b03199081169284169290921790559351600284018054909516911617909255935180519394936104329385019291909101906105e1565b50608082015160048201805460ff19166001836002811115610456576104566108ab565b021790555050506001600160a01b038216600081815260016020818152604080842060038054825480870184559287528487209092019190915533808652600284528286208254815496870182559087529390952090930191909155905490517fe4bf495d1a93acbfd9ac4ef0e94ce4d30cbd371e033155efb40ce75483078993916104e39186906109cc565b60405180910390a35050565b6001600160a01b03811660009081526001602090815260409182902080548351818402810184019094528084526060939283018282801561054f57602002820191906000526020600020905b81548152602001906001019080831161053b575b50505050509050919050565b6001600160a01b03811660009081526002602090815260409182902080548351818402810184019094528084526060939283018282801561054f576020028201919060005260206000209081548152602001906001019080831161053b5750505050509050919050565b600260205281600052604060002081815481106101c557600080fd5b828054828255906000526020600020908101928215610627579160200282015b8281111561062757825182906106179082610aef565b5091602001919060010190610601565b50610633929150610637565b5090565b8082111561063357600061064b8282610654565b50600101610637565b50805461066090610a66565b6000825580601f10610670575050565b601f01602090049060005260206000209081019061068e9190610691565b50565b5b808211156106335760008155600101610692565b80356001600160a01b03811681146106bd57600080fd5b919050565b600080604083850312156106d557600080fd5b6106de836106a6565b946020939093013593505050565b600080604083850312156106ff57600080fd5b8235915060208301356003811061071557600080fd5b809150509250929050565b634e487b7160e01b600052604160045260246000fd5b604051601f8201601f1916810167ffffffffffffffff8111828210171561075f5761075f610720565b604052919050565b600080604080848603121561077b57600080fd5b610784846106a6565b925060208085013567ffffffffffffffff808211156107a257600080fd5b8187019150601f88818401126107b757600080fd5b8235828111156107c9576107c9610720565b8060051b6107d8868201610736565b918252848101860191868101908c8411156107f257600080fd5b87870192505b8383101561087f578235868111156108105760008081fd5b8701603f81018e136108225760008081fd5b888101358781111561083657610836610720565b610847818801601f19168b01610736565b8181528f8c83850101111561085c5760008081fd5b818c84018c83013760009181018b019190915283525091870191908701906107f8565b8099505050505050505050509250929050565b6000602082840312156108a457600080fd5b5035919050565b634e487b7160e01b600052602160045260246000fd5b600381106108df57634e487b7160e01b600052602160045260246000fd5b9052565b8481526001600160a01b038481166020830152831660408201526080810161090e60608301846108c1565b95945050505050565b60006020828403121561092957600080fd5b610932826106a6565b9392505050565b6020808252825182820181905260009190848201906040850190845b8181101561097157835183529284019291840191600101610955565b50909695505050505050565b6020810161098b82846108c1565b92915050565b8281526040810161093260208301846108c1565b6000600182016109c557634e487b7160e01b600052601160045260246000fd5b5060010190565b600060408201848352602060408185015281855180845260608601915060608160051b87010193508287016000805b83811015610a5757888703605f1901855282518051808952835b81811015610a30578281018901518a82018a01528801610a15565b508881018801849052601f01601f19169097018601965093850193918501916001016109fb565b50949998505050505050505050565b600181811c90821680610a7a57607f821691505b602082108103610a9a57634e487b7160e01b600052602260045260246000fd5b50919050565b601f821115610aea57600081815260208120601f850160051c81016020861015610ac75750805b601f850160051c820191505b81811015610ae657828155600101610ad3565b5050505b505050565b815167ffffffffffffffff811115610b0957610b09610720565b610b1d81610b178454610a66565b84610aa0565b602080601f831160018114610b525760008415610b3a5750858301515b600019600386901b1c1916600185901b178555610ae6565b600085815260208120601f198616915b82811015610b8157888601518255948401946001909101908401610b62565b5085821015610b9f5787850151600019600388901b60f8161c191681555b5050505050600190811b0190555056fea264697066735822122003063aa09188684ce98493f4282847fb56a0c6f53cae553926701ac7b110864d64736f6c63430008120033",
  "linkReferences": {},
  "deployedLinkReferences": {}
}