{
  "_format": "hh-sol-artifact-1",
  "contractName": "IdentityContract",
  "sourceName": "contracts/IdentityContract.sol",
  "abi": [
    {
      "anonymous": false,
      "inputs": [
        {
          "indexed": true,
          "internalType": "address",
          "name": "user",
          "type": "address"
        },
        {
          "indexed": false,
          "internalType": "string",
          "name": "newHash",
          "type": "string"
        }
      ],
      "name": "EncryptedHashUpdated",
      "type": "event"
    },
    {
      "anonymous": false,
      "inputs": [
        {
          "indexed": true,
          "internalType": "address",
          "name": "userAddress",
          "type": "address"
        },
        {
          "indexed": false,
          "internalType": "string",
          "name": "hash",
          "type": "string"
        }
      ],
      "name": "HashAssociated",
      "type": "event"
    },
    {
      "anonymous": false,
      "inputs": [
        {
          "indexed": true,
          "internalType": "uint256",
          "name": "userId",
          "type": "uint256"
        },
        {
          "indexed": true,
          "internalType": "address",
          "name": "publicKey",
          "type": "address"
        },
        {
          "indexed": false,
          "internalType": "string",
          "name": "ipfsHash",
          "type": "string"
        },
        {
          "indexed": false,
          "internalType": "string",
          "name": "userPublicKey",
          "type": "string"
        }
      ],
      "name": "UserRegistered",
      "type": "event"
    },
    {
      "inputs": [
        {
          "internalType": "string",
          "name": "_hash",
          "type": "string"
        }
      ],
      "name": "checkHashOwner",
      "outputs": [
        {
          "internalType": "address",
          "name": "",
          "type": "address"
        }
      ],
      "stateMutability": "view",
      "type": "function"
    },
    {
      "inputs": [
        {
          "internalType": "address",
          "name": "_userAddress",
          "type": "address"
        }
      ],
      "name": "getUser",
      "outputs": [
        {
          "components": [
            {
              "internalType": "uint256",
              "name": "id",
              "type": "uint256"
            },
            {
              "internalType": "address",
              "name": "publicKey",
              "type": "address"
            },
            {
              "internalType": "string",
              "name": "ipfsHash",
              "type": "string"
            },
            {
              "internalType": "string",
              "name": "encryptedIpfsHash",
              "type": "string"
            },
            {
              "internalType": "bool",
              "name": "userFlag",
              "type": "bool"
            },
            {
              "internalType": "bool",
              "name": "requesterFlag",
              "type": "bool"
            },
            {
              "internalType": "string",
              "name": "userPublicKey",
              "type": "string"
            }
          ],
          "internalType": "struct IdentityContract.User",
          "name": "",
          "type": "tuple"
        }
      ],
      "stateMutability": "view",
      "type": "function"
    },
    {
      "inputs": [],
      "name": "getUserIPFSHash",
      "outputs": [
        {
          "internalType": "string",
          "name": "",
          "type": "string"
        }
      ],
      "stateMutability": "view",
      "type": "function"
    },
    {
      "inputs": [
        {
          "internalType": "string",
          "name": "",
          "type": "string"
        }
      ],
      "name": "hashCheck",
      "outputs": [
        {
          "internalType": "address",
          "name": "",
          "type": "address"
        }
      ],
      "stateMutability": "view",
      "type": "function"
    },
    {
      "inputs": [
        {
          "internalType": "string",
          "name": "_ipfsHash",
          "type": "string"
        },
        {
          "internalType": "string",
          "name": "_userPublicKey",
          "type": "string"
        }
      ],
      "name": "registerUser",
      "outputs": [],
      "stateMutability": "nonpayable",
      "type": "function"
    },
    {
      "inputs": [
        {
          "internalType": "string",
          "name": "_encryptedIpfsHash",
          "type": "string"
        }
      ],
      "name": "setRequesterIpfsHash",
      "outputs": [],
      "stateMutability": "nonpayable",
      "type": "function"
    },
    {
      "inputs": [
        {
          "internalType": "address",
          "name": "",
          "type": "address"
        }
      ],
      "name": "users",
      "outputs": [
        {
          "internalType": "uint256",
          "name": "id",
          "type": "uint256"
        },
        {
          "internalType": "address",
          "name": "publicKey",
          "type": "address"
        },
        {
          "internalType": "string",
          "name": "ipfsHash",
          "type": "string"
        },
        {
          "internalType": "string",
          "name": "encryptedIpfsHash",
          "type": "string"
        },
        {
          "internalType": "bool",
          "name": "userFlag",
          "type": "bool"
        },
        {
          "internalType": "bool",
          "name": "requesterFlag",
          "type": "bool"
        },
        {
          "internalType": "string",
          "name": "userPublicKey",
          "type": "string"
        }
      ],
      "stateMutability": "view",
      "type": "function"
    }
  ],
  "bytecode": "0x608060405234801561001057600080fd5b50610ebc806100206000396000f3fe608060405234801561001057600080fd5b506004361061007d5760003560e01c8063802013ea1161005b578063802013ea146100d557806389392ba014610121578063a87430ba14610134578063c5a2dc5e1461015a57600080fd5b80631d2e4afd1461008257806363045eb9146100975780636f77926b146100b5575b600080fd5b610095610090366004610a66565b61016d565b005b61009f6103d2565b6040516100ac9190610b1a565b60405180910390f35b6100c86100c3366004610b34565b6104a2565b6040516100ac9190610b5d565b6101096100e3366004610bfc565b80516020818301810180516001825292820191909301209152546001600160a01b031681565b6040516001600160a01b0390911681526020016100ac565b61010961012f366004610bfc565b61071d565b610147610142366004610b34565b61074e565b6040516100ac9796959493929190610c39565b610095610168366004610bfc565b610934565b33600090815260208190526040902054156101cf5760405162461bcd60e51b815260206004820152601860248201527f205573657220616c72656164792072656769737465726564000000000000000060448201526064015b60405180910390fd5b60006001600160a01b03166001836040516101ea9190610ca7565b908152604051908190036020019020546001600160a01b0316146102505760405162461bcd60e51b815260206004820152601760248201527f2049504653206861736820616c7265616479207573656400000000000000000060448201526064016101c6565b6002805490600061026083610cc3565b90915550506040805160e081018252600280548252336020808401828152848601888152865180840188526000808252606088019190915260016080880181905260a0880182905260c088018a9052948152928390529590912084518155905191810180546001600160a01b0319166001600160a01b03909316929092179091559251919291908201906102f49082610d73565b50606082015160038201906103099082610d73565b50608082015160048201805460a085015115156101000261ff00199315159390931661ffff199091161791909117905560c0820151600582019061034d9082610d73565b50905050336001836040516103629190610ca7565b90815260405190819003602001812080546001600160a01b03939093166001600160a01b03199093169290921790915560025433917fa344e693e566279a8e48845c27d4ca008ad9412a78a07dac2af66fca3083e4f5906103c69086908690610e33565b60405180910390a35050565b33600090815260208190526040812054606091036104025760405162461bcd60e51b81526004016101c690610e58565b336000908152602081905260409020600201805461041f90610cea565b80601f016020809104026020016040519081016040528092919081815260200182805461044b90610cea565b80156104985780601f1061046d57610100808354040283529160200191610498565b820191906000526020600020905b81548152906001019060200180831161047b57829003601f168201915b5050505050905090565b6040805160e0810182526000808252602080830182905260608385018190528084018190526080840183905260a0840183905260c0840152338252819052918220549091036105035760405162461bcd60e51b81526004016101c690610e58565b6001600160a01b0380831660009081526020818152604091829020825160e08101845281548152600182015490941691840191909152600281018054919284019161054d90610cea565b80601f016020809104026020016040519081016040528092919081815260200182805461057990610cea565b80156105c65780601f1061059b576101008083540402835291602001916105c6565b820191906000526020600020905b8154815290600101906020018083116105a957829003601f168201915b505050505081526020016003820180546105df90610cea565b80601f016020809104026020016040519081016040528092919081815260200182805461060b90610cea565b80156106585780601f1061062d57610100808354040283529160200191610658565b820191906000526020600020905b81548152906001019060200180831161063b57829003601f168201915b5050509183525050600482015460ff80821615156020840152610100909104161515604082015260058201805460609092019161069490610cea565b80601f01602080910402602001604051908101604052809291908181526020018280546106c090610cea565b801561070d5780601f106106e25761010080835404028352916020019161070d565b820191906000526020600020905b8154815290600101906020018083116106f057829003601f168201915b5050505050815250509050919050565b600060018260405161072f9190610ca7565b908152604051908190036020019020546001600160a01b031692915050565b60006020819052908152604090208054600182015460028301805492936001600160a01b039092169261078090610cea565b80601f01602080910402602001604051908101604052809291908181526020018280546107ac90610cea565b80156107f95780601f106107ce576101008083540402835291602001916107f9565b820191906000526020600020905b8154815290600101906020018083116107dc57829003601f168201915b50505050509080600301805461080e90610cea565b80601f016020809104026020016040519081016040528092919081815260200182805461083a90610cea565b80156108875780601f1061085c57610100808354040283529160200191610887565b820191906000526020600020905b81548152906001019060200180831161086a57829003601f168201915b505050506004830154600584018054939460ff80841695610100909404169350916108b190610cea565b80601f01602080910402602001604051908101604052809291908181526020018280546108dd90610cea565b801561092a5780601f106108ff5761010080835404028352916020019161092a565b820191906000526020600020905b81548152906001019060200180831161090d57829003601f168201915b5050505050905087565b3360009081526020819052604081205490036109625760405162461bcd60e51b81526004016101c690610e58565b33600090815260208190526040902060030161097e8282610d73565b50336001600160a01b03167f27753775a8d041323fa12b3daf82a3af519593b5b8a127d21f4a2f13a07c8661826040516109b89190610b1a565b60405180910390a250565b634e487b7160e01b600052604160045260246000fd5b600082601f8301126109ea57600080fd5b813567ffffffffffffffff80821115610a0557610a056109c3565b604051601f8301601f19908116603f01168101908282118183101715610a2d57610a2d6109c3565b81604052838152866020858801011115610a4657600080fd5b836020870160208301376000602085830101528094505050505092915050565b60008060408385031215610a7957600080fd5b823567ffffffffffffffff80821115610a9157600080fd5b610a9d868387016109d9565b93506020850135915080821115610ab357600080fd5b50610ac0858286016109d9565b9150509250929050565b60005b83811015610ae5578181015183820152602001610acd565b50506000910152565b60008151808452610b06816020860160208601610aca565b601f01601f19169290920160200192915050565b602081526000610b2d6020830184610aee565b9392505050565b600060208284031215610b4657600080fd5b81356001600160a01b0381168114610b2d57600080fd5b602081528151602082015260018060a01b0360208301511660408201526000604083015160e06060840152610b96610100840182610aee565b90506060840151601f1980858403016080860152610bb48383610aee565b92506080860151151560a086015260a08601519150610bd760c086018315159052565b60c08601519150808584030160e086015250610bf38282610aee565b95945050505050565b600060208284031215610c0e57600080fd5b813567ffffffffffffffff811115610c2557600080fd5b610c31848285016109d9565b949350505050565b8781526001600160a01b038716602082015260e060408201819052600090610c6390830188610aee565b8281036060840152610c758188610aee565b9050851515608084015284151560a084015282810360c0840152610c998185610aee565b9a9950505050505050505050565b60008251610cb9818460208701610aca565b9190910192915050565b600060018201610ce357634e487b7160e01b600052601160045260246000fd5b5060010190565b600181811c90821680610cfe57607f821691505b602082108103610d1e57634e487b7160e01b600052602260045260246000fd5b50919050565b601f821115610d6e57600081815260208120601f850160051c81016020861015610d4b5750805b601f850160051c820191505b81811015610d6a57828155600101610d57565b5050505b505050565b815167ffffffffffffffff811115610d8d57610d8d6109c3565b610da181610d9b8454610cea565b84610d24565b602080601f831160018114610dd65760008415610dbe5750858301515b600019600386901b1c1916600185901b178555610d6a565b600085815260208120601f198616915b82811015610e0557888601518255948401946001909101908401610de6565b5085821015610e235787850151600019600388901b60f8161c191681555b5050505050600190811b01905550565b604081526000610e466040830185610aee565b8281036020840152610bf38185610aee565b60208082526014908201527308155cd95c881b9bdd081c9959da5cdd195c995960621b60408201526060019056fea26469706673582212204c00d64e52c8c08eb94c8fe7e1da1364d1ab80fc6785bb9e4b237819411ea9de64736f6c63430008120033",
  "linkReferences": {},
  "deployedLinkReferences": {}
}